{
  "contractName": "JeuBlackjack",
  "abi": [
    {
      "inputs": [
        {
          "internalType": "contract JetonCasino",
          "name": "_jetonCasino",
          "type": "address"
        }
      ],
      "stateMutability": "nonpayable",
      "type": "constructor"
    },
    {
      "inputs": [],
      "name": "jetonCasino",
      "outputs": [
        {
          "internalType": "contract JetonCasino",
          "name": "",
          "type": "address"
        }
      ],
      "stateMutability": "view",
      "type": "function",
      "constant": true
    },
    {
      "inputs": [],
      "name": "owner",
      "outputs": [
        {
          "internalType": "address",
          "name": "",
          "type": "address"
        }
      ],
      "stateMutability": "view",
      "type": "function",
      "constant": true
    },
    {
      "inputs": [],
      "name": "tokenPrice",
      "outputs": [
        {
          "internalType": "uint256",
          "name": "",
          "type": "uint256"
        }
      ],
      "stateMutability": "view",
      "type": "function",
      "constant": true
    },
    {
      "stateMutability": "payable",
      "type": "receive",
      "payable": true
    },
    {
      "inputs": [
        {
          "internalType": "uint256",
          "name": "amount",
          "type": "uint256"
        }
      ],
      "name": "buyTokens",
      "outputs": [],
      "stateMutability": "payable",
      "type": "function",
      "payable": true
    },
    {
      "inputs": [],
      "name": "getTokenPrice",
      "outputs": [
        {
          "internalType": "uint256",
          "name": "",
          "type": "uint256"
        }
      ],
      "stateMutability": "view",
      "type": "function",
      "constant": true
    },
    {
      "inputs": [
        {
          "internalType": "uint256",
          "name": "amount",
          "type": "uint256"
        }
      ],
      "name": "setAllowance",
      "outputs": [],
      "stateMutability": "nonpayable",
      "type": "function"
    },
    {
      "inputs": [
        {
          "internalType": "uint256",
          "name": "_tokenPrice",
          "type": "uint256"
        }
      ],
      "name": "setTokenPrice",
      "outputs": [],
      "stateMutability": "nonpayable",
      "type": "function"
    },
    {
      "inputs": [
        {
          "internalType": "uint256",
          "name": "tokenAmount",
          "type": "uint256"
        }
      ],
      "name": "withdrawETH",
      "outputs": [],
      "stateMutability": "nonpayable",
      "type": "function"
    },
    {
      "inputs": [
        {
          "internalType": "address",
          "name": "user",
          "type": "address"
        }
      ],
      "name": "getUserTokenBalance",
      "outputs": [
        {
          "internalType": "uint256",
          "name": "",
          "type": "uint256"
        }
      ],
      "stateMutability": "view",
      "type": "function",
      "constant": true
    },
    {
      "inputs": [
        {
          "internalType": "address payable",
          "name": "player",
          "type": "address"
        },
        {
          "internalType": "uint256",
          "name": "amount",
          "type": "uint256"
        }
      ],
      "name": "sendETHToPlayer",
      "outputs": [],
      "stateMutability": "nonpayable",
      "type": "function"
    }
  ],
  "bytecode": "0x608060405266016bcc41e90000600155348015601a57600080fd5b50604051610a87380380610a878339810160408190526037916064565b600080546001600160a01b039092166001600160a01b031992831617905560028054909116331790556092565b600060208284031215607557600080fd5b81516001600160a01b0381168114608b57600080fd5b9392505050565b6109e6806100a16000396000f3fe6080604052600436106100955760003560e01c80637ff9b596116100595780637ff9b5961461013a5780638da5cb5b14610150578063b32c2a3814610188578063f14210a6146101a8578063f5aec88c146101c857600080fd5b80633610724e146100a15780633ba93f26146100b65780634b94f50e146100d65780635bc411ab146100fa5780636a61e5fc1461011a57600080fd5b3661009c57005b600080fd5b6100b46100af3660046108b4565b6101e8565b005b3480156100c257600080fd5b506100b46100d13660046108b4565b61042c565b3480156100e257600080fd5b506001545b6040519081526020015b60405180910390f35b34801561010657600080fd5b506100b46101153660046108e5565b6104a1565b34801561012657600080fd5b506100b46101353660046108b4565b610538565b34801561014657600080fd5b506100e760015481565b34801561015c57600080fd5b50600254610170906001600160a01b031681565b6040516001600160a01b0390911681526020016100f1565b34801561019457600080fd5b50600054610170906001600160a01b031681565b3480156101b457600080fd5b506100b46101c33660046108b4565b6105a9565b3480156101d457600080fd5b506100e76101e3366004610911565b61083f565b6001546101f5908261094b565b3410156102415760405162461bcd60e51b8152602060048201526015602482015274125b9cdd59999a58da595b9d08115512081cd95b9d605a1b60448201526064015b60405180910390fd5b6000546040516340c10f1960e01b8152336004820152602481018390526001600160a01b03909116906340c10f1990604401600060405180830381600087803b15801561028d57600080fd5b505af11580156102a1573d6000803e3d6000fd5b5050600054604051636eb1769f60e11b815233600482015230602482018190526001600160a01b03909216935063095ea7b392508490849063dd62ed3e90604401602060405180830381865afa1580156102ff573d6000803e3d6000fd5b505050506040513d601f19601f820116820180604052508101906103239190610962565b61032d919061097b565b6040516001600160e01b031960e085901b1681526001600160a01b03909216600483015260248201526044016020604051808303816000875af1158015610378573d6000803e3d6000fd5b505050506040513d601f19601f8201168201806040525081019061039c919061098e565b50604051600090309034908381818185875af1925050503d80600081146103df576040519150601f19603f3d011682016040523d82523d6000602084013e6103e4565b606091505b50509050806104285760405162461bcd60e51b815260206004820152601060248201526f2a3930b739b332b9103330b4b632b21760811b6044820152606401610238565b5050565b60005460405163095ea7b360e01b8152306004820152602481018390526001600160a01b039091169063095ea7b3906044016020604051808303816000875af115801561047d573d6000803e3d6000fd5b505050506040513d601f19601f82011682018060405250810190610428919061098e565b804710156104fd5760405162461bcd60e51b8152602060048201526024808201527f496e73756666696369656e742062616c616e636520696e2074686520636f6e746044820152631c9858dd60e21b6064820152608401610238565b6040516001600160a01b0383169082156108fc029083906000818181858888f19350505050158015610533573d6000803e3d6000fd5b505050565b6002546001600160a01b031633146105a45760405162461bcd60e51b815260206004820152602960248201527f4f6e6c7920746865206f776e65722063616e206368616e67652074686520746f6044820152686b656e20707269636560b81b6064820152608401610238565b600155565b60005460405163095ea7b360e01b8152306004820152602481018390526001600160a01b039091169063095ea7b3906044016020604051808303816000875af11580156105fa573d6000803e3d6000fd5b505050506040513d601f19601f8201168201806040525081019061061e919061098e565b506000811161066f5760405162461bcd60e51b815260206004820181905260248201527f416d6f756e74206d7573742062652067726561746572207468616e207a65726f6044820152606401610238565b600080546040516370a0823160e01b81523360048201526001600160a01b03909116906370a0823190602401602060405180830381865afa1580156106b8573d6000803e3d6000fd5b505050506040513d601f19601f820116820180604052508101906106dc9190610962565b90508181101561072e5760405162461bcd60e51b815260206004820152601a60248201527f496e73756666696369656e7420746f6b656e2062616c616e63650000000000006044820152606401610238565b60006001548361073e919061094b565b9050804710156107905760405162461bcd60e51b815260206004820152601c60248201527f496e73756666696369656e742045544820696e20636f6e7472616374000000006044820152606401610238565b6000546040516323b872dd60e01b8152336004820152306024820152604481018590526001600160a01b03909116906323b872dd906064016020604051808303816000875af11580156107e7573d6000803e3d6000fd5b505050506040513d601f19601f8201168201806040525081019061080b919061098e565b50604051339082156108fc029083906000818181858888f19350505050158015610839573d6000803e3d6000fd5b50505050565b600080546040516370a0823160e01b81526001600160a01b038481166004830152909116906370a0823190602401602060405180830381865afa15801561088a573d6000803e3d6000fd5b505050506040513d601f19601f820116820180604052508101906108ae9190610962565b92915050565b6000602082840312156108c657600080fd5b5035919050565b6001600160a01b03811681146108e257600080fd5b50565b600080604083850312156108f857600080fd5b8235610903816108cd565b946020939093013593505050565b60006020828403121561092357600080fd5b813561092e816108cd565b9392505050565b634e487b7160e01b600052601160045260246000fd5b80820281158282048414176108ae576108ae610935565b60006020828403121561097457600080fd5b5051919050565b808201808211156108ae576108ae610935565b6000602082840312156109a057600080fd5b8151801515811461092e57600080fdfea2646970667358221220ae2ae478a1fd89374577d9c5bd523edb8700e55fc11a722345d412155b38303c64736f6c63430008190033",
  "immutableReferences": {},
  "source": "// SPDX-License-Identifier: MIT\r\npragma solidity ^0.8.0;\r\n\r\nimport \"./JetonCasino.sol\";\r\n\r\ncontract JeuBlackjack {\r\n    JetonCasino public jetonCasino;\r\n    uint256 public tokenPrice = 0.0004 ether;\r\n    address public owner;\r\n\r\n    constructor(JetonCasino _jetonCasino) {\r\n        jetonCasino = _jetonCasino;\r\n        owner = msg.sender;\r\n    }\r\n\r\n    function buyTokens(uint256 amount) public payable {\r\n        require(msg.value >= amount * tokenPrice, \"Insufficient ETH sent\");\r\n        jetonCasino.mint(msg.sender, amount);\r\n        jetonCasino.approve(address(this), jetonCasino.allowance(msg.sender, address(this)) + amount);\r\n        (bool success, ) = payable(address(this)).call{value: msg.value}(\"\");\r\n        require(success, \"Transfer failed.\");\r\n    }\r\n\r\n    function getTokenPrice() public view returns (uint256) {\r\n        return tokenPrice;\r\n    }\r\n\r\n    function setAllowance(uint256 amount) public {\r\n        jetonCasino.approve(address(this), amount);\r\n    }\r\n\r\n    function setTokenPrice(uint256 _tokenPrice) public {\r\n        require(msg.sender == owner, \"Only the owner can change the token price\");\r\n        tokenPrice = _tokenPrice;\r\n    }\r\n\r\n    function withdrawETH(uint256 tokenAmount) public {\r\n        jetonCasino.approve(address(this), tokenAmount);\r\n        require(tokenAmount > 0, \"Amount must be greater than zero\");\r\n        uint256 tokenBalance = jetonCasino.balanceOf(msg.sender);\r\n        require(tokenBalance >= tokenAmount, \"Insufficient token balance\");\r\n\r\n        uint256 ethAmount = tokenAmount * tokenPrice;\r\n        require(address(this).balance >= ethAmount, \"Insufficient ETH in contract\");\r\n        jetonCasino.transferFrom(msg.sender, address(this), tokenAmount);\r\n        payable(msg.sender).transfer(ethAmount);\r\n    }\r\n\r\n    function getUserTokenBalance(address user) public view returns (uint256) {\r\n        return jetonCasino.balanceOf(user);\r\n    }\r\n     function sendETHToPlayer(address payable player,uint256 amount) external {\r\n        require(address(this).balance >= amount, \"Insufficient balance in the contract\");\r\n        player.transfer(amount);\r\n    }\r\n\r\n    receive() external payable {}\r\n}\r\n",
  "sourcePath": "/mnt/c/Users/benki/OneDrive/Documents/Blackjack_grp-main/blockchain/contracts/JeuBlackjack.sol",
  "compiler": {
    "name": "solc",
    "version": "0.8.25+commit.b61c2a91.Emscripten.clang"
  },
  "schemaVersion": "3.4.16",
  "updatedAt": "2024-05-14T14:56:22.956Z",
  "networkType": "ethereum",
  "devdoc": {
    "kind": "dev",
    "methods": {},
    "version": 1
  },
  "userdoc": {
    "kind": "user",
    "methods": {},
    "version": 1
  }
}